:020000040000FA
:100000000B0C3000FF0C260019095A0C0B091E09B5
:10001000FF0C3709040A3100080C32002D09710366
:1000200003072309030628093209F2020E0A2D09E3
:100030000008040C30011002060000080B0C7001CF
:10004000100206000008020C300110020600000831
:100050000D0C7001100206000008010C30011002A6
:10006000060000080E0C70011002060000083100A6
:10007000FF0C3200F1023D0A0008F2023D0A380A84
:04008000000800086C
:021FFE00FB0FD7
:00000001FF
